{
  "contractName": "Voting",
  "abi": [
    {
      "constant": true,
      "inputs": [
        {
          "name": "",
          "type": "address"
        }
      ],
      "name": "voters",
      "outputs": [
        {
          "name": "",
          "type": "bool"
        }
      ],
      "payable": false,
      "stateMutability": "view",
      "type": "function"
    },
    {
      "constant": true,
      "inputs": [
        {
          "name": "",
          "type": "uint256"
        }
      ],
      "name": "contestants",
      "outputs": [
        {
          "name": "id",
          "type": "uint256"
        },
        {
          "name": "name",
          "type": "string"
        },
        {
          "name": "voteCount",
          "type": "uint256"
        }
      ],
      "payable": false,
      "stateMutability": "view",
      "type": "function"
    },
    {
      "constant": true,
      "inputs": [],
      "name": "contestantsCount",
      "outputs": [
        {
          "name": "",
          "type": "uint256"
        }
      ],
      "payable": false,
      "stateMutability": "view",
      "type": "function"
    },
    {
      "inputs": [],
      "payable": false,
      "stateMutability": "nonpayable",
      "type": "constructor"
    },
    {
      "anonymous": false,
      "inputs": [
        {
          "indexed": true,
          "name": "_contestantId",
          "type": "uint256"
        }
      ],
      "name": "votedEvent",
      "type": "event"
    },
    {
      "constant": false,
      "inputs": [
        {
          "name": "_contestantId",
          "type": "uint256"
        }
      ],
      "name": "vote",
      "outputs": [],
      "payable": false,
      "stateMutability": "nonpayable",
      "type": "function"
    }
  ],
  "bytecode": "0x608060405234801561001057600080fd5b506100556040518060400160405280600381526020017f546f6d000000000000000000000000000000000000000000000000000000000081525061009e60201b60201c565b6100996040518060400160405280600581526020017f4a6572727900000000000000000000000000000000000000000000000000000081525061009e60201b60201c565b6101be565b6002600081548092919060010191905055506040518060600160405280600254815260200182815260200160008152506000806002548152602001908152602001600020600082015181600001556020820151816001019080519060200190610108929190610119565b506040820151816002015590505050565b828054600181600116156101000203166002900490600052602060002090601f016020900481019282601f1061015a57805160ff1916838001178555610188565b82800160010185558215610188579182015b8281111561018757825182559160200191906001019061016c565b5b5090506101959190610199565b5090565b6101bb91905b808211156101b757600081600090555060010161019f565b5090565b90565b6103e0806101cd6000396000f3fe608060405234801561001057600080fd5b506004361061004c5760003560e01c80630121b93f14610051578063a3ec138d1461007f578063dfd50f52146100db578063ec63d1c814610190575b600080fd5b61007d6004803603602081101561006757600080fd5b81019080803590602001909291905050506101ae565b005b6100c16004803603602081101561009557600080fd5b81019080803573ffffffffffffffffffffffffffffffffffffffff1690602001909291905050506102cc565b604051808215151515815260200191505060405180910390f35b610107600480360360208110156100f157600080fd5b81019080803590602001909291905050506102ec565b6040518084815260200180602001838152602001828103825284818151815260200191508051906020019080838360005b83811015610153578082015181840152602081019050610138565b50505050905090810190601f1680156101805780820380516001836020036101000a031916815260200191505b5094505050505060405180910390f35b6101986103ae565b6040518082815260200191505060405180910390f35b600160003373ffffffffffffffffffffffffffffffffffffffff1673ffffffffffffffffffffffffffffffffffffffff16815260200190815260200160002060009054906101000a900460ff161561020557600080fd5b60008111801561021757506002548111155b61022057600080fd5b6000808281526020019081526020016000206002016000815480929190600101919050555060018060003373ffffffffffffffffffffffffffffffffffffffff1673ffffffffffffffffffffffffffffffffffffffff16815260200190815260200160002060006101000a81548160ff021916908315150217905550807ffff3c900d938d21d0990d786e819f29b8d05c1ef587b462b939609625b684b1660405160405180910390a250565b60016020528060005260406000206000915054906101000a900460ff1681565b6000602052806000526040600020600091509050806000015490806001018054600181600116156101000203166002900480601f01602080910402602001604051908101604052809291908181526020018280546001816001161561010002031660029004801561039e5780601f106103735761010080835404028352916020019161039e565b820191906000526020600020905b81548152906001019060200180831161038157829003601f168201915b5050505050908060020154905083565b6002548156fea165627a7a723058200d2245146b41b2f4a54f1e09fc1b1ca2e239ae9d669dac839f2a16437576c9a40029",
  "source": "pragma solidity 0.5.8;\n \n//creating the contract\ncontract Voting {\n \n\t//creating strcture to model the contestant\n\tstruct Contestant {\n\t\tuint id;\n\t\tstring name;\n\t\tuint voteCount;\n\t}\n \n\t//use mapping to get or fetch the contestant details\n\tmapping(uint => Contestant) public contestants;\n \n\t//to save the list of users/accounts who already casted vote\n\tmapping(address => bool) public voters;\n \n\t//add a public state variable to keep track of contestant Count\n\tuint public contestantsCount;\n \n\tevent votedEvent (\n        uint indexed _contestantId\n    );\n \n    constructor() public {\n\t\taddContestant(\"Tom\");\n\t\taddContestant(\"Jerry\");\n\t}\n \n\t//add a function to add contestant\n\tfunction addContestant (string memory _name) private {\n\t\tcontestantsCount ++;\n\t\tcontestants[contestantsCount] = Contestant(contestantsCount, _name, 0);\n\t}\n \n\tfunction vote (uint _contestantId) public {\n\t\t//restricting the person who already casted the vote\n\t\trequire(!voters[msg.sender]);\n\t\t//require that the vote is casted to a valid contestant\n\t\trequire(_contestantId > 0 && _contestantId <= contestantsCount);\n\t\t//increase the contestant vote count\n\t\tcontestants[_contestantId].voteCount ++;\n\t\t//set the voter's voted status to true\n\t\tvoters[msg.sender] = true;\n \n\t\t//trigger the vote event\n\t\temit votedEvent(_contestantId);\n\t}\n}",
  "sourcePath": "/home/khyati/givmat/contracts/Voting.sol",
  "compiler": {
    "name": "solc",
    "version": "0.5.8+commit.23d335f2.Emscripten.clang"
  },
  "schemaVersion": "3.0.12",
  "updatedAt": "2019-08-21T18:15:50.858Z",
  "devdoc": {
    "methods": {}
  },
  "userdoc": {
    "methods": {}
  }
}